:020000040800F2
:1000000068080020310200080F1B00086B1A000866
:100010000D1B00084D080008E91F00080000000043
:10002000000000000000000000000000131B00089A
:100030000D09000800000000111B0008151B000836
:100040004B0200084B0200084B0200084B0200085C
:100050004B0200084B0200084B0200084B0200084C
:100060004B0200084B0200084B0200084B0200083C
:100070004B0200084B0200084B0200084B0200082C
:100080004B0200084B0200084B0200084B0200081C
:100090004B0200084B0200084B0200084B0200080C
:1000A0004B0200084B0200084B0200084B020008FC
:1000B0004B0200084B0200084B0200084B020008EC
:1000C0004B0200084B0200084B0200084B020008DC
:1000D0004B020008DD1F00084B0200084B0200081D
:1000E0004B0200084B0200084B0200084B020008BC
:1000F0004B0200084B0200084B0200084B020008AC
:100100004B0200084B0200084B0200084B0200089B
:100110004B0200084B0200084B0200084B0200088B
:100120004B0200084B020008510800084B0200086F
:100130004B0200084B0200084B0200084B0200086B
:100140004B0200084B0200084B0200084B0200085B
:100150004B0200084B0200085D0800084B02000833
:100160004B0200084B0200084B0200084B0200083B
:100170004B0200084B0200084B0200080000000080
:100180004B0200084B02000800F002F800F041F8B2
:100190000AA090E8000C82448344AAF10107DA45E2
:1001A00001D100F036F8AFF2090EBAE80F0013F0F3
:1001B000010F18BFFB1A43F001031847C8220000C3
:1001C000E8220000103A24BF78C878C1FAD8520754
:1001D00024BF30C830C144BF04680C6070470000C1
:1001E0000023002400250026103A28BF78C1FBD840
:1001F000520728BF30C148BF0B607047782900F014
:10020000E380002070471FB502F00AF91FBD10B54A
:1002100010BD00F0E9FA1146FFF7F5FF02F00CF807
:1002200000F007FB03B4FFF7F2FF03BC01F0F4FE9C
:100230000948804709480047FEE7FEE7FEE7FEE77A
:10024000FEE7FEE7FEE7FEE7FEE7FEE704480549B6
:10025000054A064B70470000AD1B000889010008E5
:10026000680200206808002068040020680400205C
:1002700053EA020C00F069802DE9F04B4FF00006C4
:10028000002B1FBFB3FA83F503FA05F424FA05F631
:100290005E4012BF1643B2FA82F502FA05F4C5F1C8
:1002A00020051EBF22FA05FC44EA0C04203556EA5C
:1002B000044C4FEA144418BF641C4FF000084FF080
:1002C0000009904271EB030C39D3002919BFB1FA30
:1002D00081F701FA07F6B0FA80F700FA07F6C7F1DE
:1002E00020071EBF20FA07FC46EA0C062037B6FBA3
:1002F000F4FCA7EB0507103F07F01F0BCBF120061E
:100300000CFA0BFB2CFA06F644BFB3460026202F4E
:10031000A4BF5E464FF0000B5BEA060C08BF4FF02F
:10032000010B19EB0B09ABFB027C48EB0608C01B69
:1003300006FB02CC0BFB03CC71EB0C01C1E70B46B7
:10034000024641464846BDE8F08B13B54FF0000029
:100350004FF00001AFF30080BDE81C407047000083
:100360000FB4044910B503AA029800F0DDF910BCDF
:100370005DF814FB0C00002070B504468569006828
:10038000C10601D5302600E02026C00707D070BD89
:10039000D4E9012130469047206A401C20626D1E3E
:1003A000F6D570BD70B5044685690078C00707D1E1
:1003B00070BDD4E9012120209047206A401C2062B2
:1003C0006D1EF6D570BD000070B504460D46214681
:1003D0001068AFF300802188090502D50F4A7A44DE
:1003E00002E00E4A7A440E32002104F1240305E0B3
:1003F00000F00F060009965D5E54491C0028F7D1F5
:1004000020780023000704D5702D02D009B1022303
:1004100011322046BDE8704000F02CB96820000081
:100420002DE9F05F894604464FF0000ADFF824B159
:10043000FB44C0F820A02046E168884700287DD012
:10044000252806D0D4E901219047206A401C20626B
:10045000F1E700255F462046E168884720280646E8
:1004600007DB312E05D2B81910F8200C08B105436E
:10047000F1E7A80701D525F00405C4F81CA0002762
:10048000C4F818A02A2E09D0304601F0BEFD38B3BA
:1004900004EB8708303EC8F8186019E059F8041BCF
:1004A000204604EB87029161E1688847012F0646E8
:1004B00018D1E069002820DA25F020051DE0D8F8E1
:1004C000180000EB800006EB40003038C8F8180038
:1004D0002046E1688847064601F097FD0028EED1E6
:1004E000012F0AD02E2E08D12046E16888477F1CB4
:1004F0000646022F45F02005C4DBA069002803DA78
:10050000404245F00105A061E80701D025F0100543
:10051000A6B1A6F14100192802D8203645F400659D
:100520004A463146204625604D46FFF767FE60B1DA
:10053000012807D0ED1D25F0070000E007E000F1DD
:10054000080978E705F1040975E730467AE7206A7B
:10055000BDE8F09F3E20000010B5431C02E010F8FB
:10056000011B71B18107FAD14FF0013202C88C1A18
:100570008C4314EAC211F9D0C01A0A0603D0C01E77
:1005800010BDC01A10BD0A0401D0801E10BD0902A2
:10059000FCD0401E10BD032A40F2308010F0030C46
:1005A00000F0158011F8013BBCF1020F624498BFC6
:1005B00011F801CB00F8013B38BF11F8013BA2F163
:1005C000040298BF00F801CB38BF00F8013B11F0DE
:1005D000030300F0BB80083AC0F0088051F8043BE8
:1005E000083A51F804CBA0E80810F5E7121D5CBFEB
:1005F00051F8043B40F8043BAFF30080D20724BF1E
:1006000011F8013B11F801CB48BF11F8012B24BFB1
:1006100000F8013B00F801CB48BF00F8012B704700
:100620004FF0000200B5134694469646203922BF8B
:10063000A0E80C50A0E80C50B1F12001BFF4F7AFD6
:10064000090728BFA0E80C5048BF0CC05DF804EBB8
:10065000890028BF40F8042B08BF704748BF20F826
:10066000022B11F0804F18BF00F8012B7047704724
:10067000704770472DE9F0470D469946924604466B
:1006800000F124080168880604D5E06921F0100112
:10069000216000E00120A84201DD471B00E00027A7
:1006A000A1697A1902EB0900081AA0612078C00636
:1006B00002D42046FFF760FE002608E0D4E90121BD
:1006C0001AF806009047206A401C761C20624E45AE
:1006D000F4DB2078C0060AD52046FFF74DFE06E081
:1006E000D4E9012130209047206A401C2062381E46
:1006F000A7F10107F4DC07E0D4E9012118F80500AF
:100700009047206A401C2062281EA5F10105F3DCF9
:100710002046FFF747FE2078000602D50220BDE8FC
:10072000F0870120FBE70000074B70B50D467B44C6
:1007300000F043F80446284600F052F810B14FF09C
:10074000FF3070BD204670BDEB18000010B5203A98
:10075000C0F00B80B1E81850203AA0E81850B1E87A
:100760001850A0E81850BFF4F5AF5FEA027C24BF30
:10077000B1E81850A0E8185044BF18C918C0BDE827
:1007800010405FEA827C24BF51F8043B40F8043BF0
:1007900008BF7047D20728BF31F8023B48BF11F8A5
:1007A000012B28BF20F8023B48BF00F8012B7047FF
:1007B00001694A1C02610878704700B58FB0CDE925
:1007C00001310021059105497944CDE90310114615
:1007D0006846FFF725FE0FB000BD0000E5FFFFFFF4
:1007E000007B00F080007047754600F02BF8AE46A5
:1007F00005006946534620F00700854618B020B52D
:10080000FFF724FDBDE820404FF000064FF0000741
:100810004FF000084FF0000B21F00701AC46ACE8A8
:10082000C009ACE8C009ACE8C009ACE8C0098D4615
:10083000704710B50446AFF300802046BDE8104075
:10084000FFF7F0BC0048704704020020FEE70000FC
:10085000014800F0B9B8000044010020014800F050
:10086000B3B80000A401002001681823CAB2103AEE
:10087000B2FBF3F2054B6FF30901032A9B5CC365DE
:1008800000D9091D81650846704700002A24000828
:1008900010B5014600208B698A6A4FF0C07453B1CD
:1008A000B3F5005F15D072B1012A0CD0022A0AD02C
:1008B000032A09D104E01AB1012A06D0022A03D181
:1008C000C96AC90100D5012010BDC96AA142FAD088
:1008D00010BD002AF7D0012AF2D0022AF3D0032A51
:1008E000F3D010BD30B50468256825F48025256057
:1008F000046863608368402B036803D099600068D4
:10090000C26030BD9A600068C16030BD704772B689
:10091000FEE72DE9F0410446876D00F0BFFA064678
:1009200094F835000025022806D08020606584F800
:1009300034500120BDE8F0812068016821F01601E3
:1009400001602068416921F080014161206C08B993
:10095000A06C20B12068016821F0080101602068C6
:10096000016821F0010101600CE000F097FA801BA2
:10097000052807D920206065032084F8350084F815
:100980003450D7E720680068C007EED194F85C10B7
:100990003F208840B860012084F8350084F8345046
:1009A0000020C7E790F83510022903D08021416567
:1009B00001207047052180F835100068016821F09A
:1009C00001010160002070472DE9F84304464FF013
:1009D0000009CDF8009063484FF41651A56D0068EA
:1009E000B0FBF1F72E6894F85C10082000FA01F1D2
:1009F00031420FD021680A6852070BD50A6822F0ED
:100A000004020A6094F85C108840A860606D40F0B1
:100A10000100606594F85C104FF0010808FA01F0DD
:100A2000304208D021684969090604D5A860606D84
:100A300040F00200606594F85C1004208840304269
:100A400008D021680968890704D5A860606D40F066
:100A50000400606594F85C1010208840304218D083
:100A600021680968090714D5A8602068016849034E
:100A700004D50068000308D5A16C07E00168C9052A
:100A800003D4016821F008010160216C09B12046FE
:100A9000884794F85C1020208840304231D021688B
:100AA0000968C9062DD5A86094F835000528206886
:100AB000016806D0490347D5006800031DD4616C66
:100AC0001CE021F0160101602068416921F08001DD
:100AD0004161206C08B9A06C20B12068016821F048
:100AE0000801016094F85C103F208840A86084F8F9
:100AF000358084F83490216D1FE0E16B09B1204608
:100B00008847606D00282BD0606DC00714D0052089
:100B100084F835002068016821F001010160009827
:100B2000401C0090B84203D820680068C007F6D186
:100B300084F8358084F83490E16C002910D001B03D
:100B40002046BDE8F04308470168C905D5D40168CF
:100B500021F01001016084F8358084F83490CCE7EE
:100B6000BDE8F8831C0000202DE9F041044600F0A8
:100B700095F906465CB1022084F83500002584F81A
:100B800034502068016821F0010101600DE001206E
:100B9000BDE8F08100F082F9801B052805D92020EE
:100BA0006065032084F83500F2E720680068C0071C
:100BB000F0D12268116820480140D4E901031843AC
:100BC000D4E903363343184363691843A3691843D0
:100BD000E3691843236A18430843616A042903D16F
:100BE000D4E90B1319430843106020684069666A12
:100BF00020F0070130460E43012704280CD1A06ADB
:100C00000643E06A40B12046FFF742FE20B1402093
:100C1000606584F83570BAE7206846612046FFF7C2
:100C200023FE94F85C203F2191408160656584F843
:100C300035700020ACE700003F8010F02DE9F04156
:100C40000446866D90F83400002501280DD001205F
:100C500084F8340094F835700020012F07D084F810
:100C6000340002252846BDE8F0810220FBE7022778
:100C700084F8357060652046FFF734FE94F85C1008
:100C80003F208840B0602068016841F01601016093
:100C9000206C20B12068016841F0080101602068E3
:100CA000016841F001010160DCE700002DE9F84F27
:100CB000DFF8BCA10022012503264FF00F090AF13D
:100CC000040BAAF1040E00BF0B6805FA02F42340DE
:100CD000A34270D10F7907F00307012F01D0022F33
:100CE00016D187684FEA420806FA08FC27EA0C0783
:100CF000D1F80CC00CFA08FC4CEA070CC0F808C08C
:100D00004768A7430C79C4F3001494403C43446003
:100D10000C79E443A4070AD0C4684FEA420C06FAEF
:100D20000CF7BC438F6807FA0CF72743C7600C79B0
:100D300004F00304022C12D1D40800EB840CDCF87C
:100D400020405707FF0E09FA07F824EA0804D1F8F3
:100D5000108008FA07F848EA0408CCF820800468F4
:100D60004FEA420C06FA0CF7BC430F7907F0030771
:100D700007FA0CF7274307604C6814F4403F70D023
:100D80003C4C276847F480472760246822F003071B
:100D900004F480440094384C07EB040CDCF8084859
:100DA00097074FEA177809FA08F7BC43334FB84260
:100DB00002D1002724E054E0314FB84201D101278D
:100DC0001EE0304FB84201D1022719E02E4FB84241
:100DD00001D1032714E02D4FB84201D104270FE0C1
:100DE0002B4FB84201D105270AE02A4FB84201D162
:100DF000062705E0284FB84201D1072700E0082761
:100E000007FA08F72743CCF80878DAF80040574685
:100E1000D1F804C09C435FEACC2C00D51C433C6055
:100E2000DBF800405F46D1F804C09C435FEA8C2C9D
:100E300000D51C433C60DEF800407746D1F804C082
:100E40009C435FEA8C3C00D51C433C60084F083F44
:100E50003C68D1F804C09C435FEACC3C00D51C43FD
:100E60003C60521C102AFFF42FAFBDE8F88F000041
:100E7000083C01404438024000300140000002407C
:100E80000004024000080240000C02400010024032
:100E90000014024000180240001C02400148806813
:100EA0007047000010000020024881680278114459
:100EB00081607047100000200B4810B5016841F4B4
:100EC00000710160016841F480610160016841F4D2
:100ED00080710160032000F06FF80F2000F006F829
:100EE00000F024F8002010BD003C024070B50D4D0C
:100EF00004464FF47A712878B1FBF0F00A4909688A
:100F0000B1FBF0F000F00AFB48B9102C07D2002228
:100F10002146501E00F030F800206C6070BD0120AA
:100F200070BD0000100000201C0000200A4808B519
:100F3000016841F480410160006800F48040009045
:100F40000548001F016841F080510160006800F011
:100F50008050009008BD000044380240002809DBA2
:100F600000F01F02012191404009800000F1E020C3
:100F7000C0F8001170470000F0B40E4B1B680C461F
:100F8000C3F30223C3F10705042D00D90425191D5D
:100F9000072901D2002300E0DB1E012606FA05F135
:100FA000491E214099409E40761E16403143F0BCB8
:100FB00001F01BB80CED00E0064900F007020868DC
:100FC0004FF6FF03184040EA0220034A104308602E
:100FD000704700000CED00E00000FA052DE9F04735
:100FE0000E46050065D0DFF81481D8F80000F7B28E
:100FF00000F00700B04207D288F80070D8F800006F
:1010000000F00700B04254D128683D4C810712D54A
:10101000400703D5206840F4E0502060287800079E
:1010200003D5206840F4604020602068A96820F063
:10103000F000084320602878C0072DD03049686848
:101040000839012812D0022813D0032811D00968CA
:10105000890700292DDA216821F00301014321606D
:10106000FFF71CFF814641F2883A0EE009688903C8
:10107000EFE709688901ECE7FFF710FFA0EB090132
:10108000514502D90320BDE8F0872068696800F067
:101090000C00B0EB810FEFD1D8F80010404601F002
:1010A0000701B14207D90770006800F00700B0429D
:1010B00001D00120E7E72878400705D52068E968D6
:1010C00020F4E050084320602878000706D5206807
:1010D000296920F4604040EAC100206000F038F83F
:1010E0002168084AC1F30311515CC84006490860F1
:1010F00006480068FFF7FAFE0020C4E7003C024003
:1011000008380240322400081C000020140000208F
:101110000448054900680968044AC1F38221515C0A
:10112000C84070471C0000200838024042240008D4
:101130000448054900680968044AC1F34231515C1A
:10114000C84070471C0000200838024042240008B4
:10115000154810B5006810F00C02144813D0411067
:10116000042A0FD0082A0ED10F4C241F22682368AE
:1011700002F03F025B0207D52068C0F38810A0FB95
:10118000010106E0084610BD2168C1F38811A1FBEA
:1011900000010023FFF76CF82168C1F30141491CED
:1011A0004900B0FBF1F010BD083802400024F40003
:1011B0002DE9F84F04006ED02078DFF84C93C0077B
:1011C000A9F104054AD009F104000168C1F38101C5
:1011D000012908D00068C0F3810002280AD1D9F89B
:1011E0000000400206D52868800337D560680028D3
:1011F000E1D033E06068B0F5803F10D0B0F5A02FAB
:10120000286810D020F480302860286820F48020DE
:1012100028606068A8B1FFF741FE06460DE0286827
:1012200040F48030F4E740F480202860F7E700BF06
:10123000FFF734FE801B642873D828688003F7D535
:101240000CE0FFF72BFE064605E000BFFFF726FE89
:10125000801B6428F0D828688003F7D42078DFF852
:10126000AC8280074FF0000A3ED5A748001D0168F8
:1012700011F00C0F08D00068C0F3810002280BD1D8
:10128000D9F80000400207D42868800716D5E06826
:10129000012800D112E033E1E068B8B10120C8F8BC
:1012A0000000FFF7FBFD064605E000BFFFF7F6FD77
:1012B000801B0228C0D828688007F7D528682169D4
:1012C00020F0F80040EAC10028600DE0C8F800A056
:1012D000FFF7E4FD064604E0FFF7E0FD801B02286F
:1012E0001FD828688007F7D42078000722D5864FBA
:1012F00087486169703771B101210160FFF7CEFD48
:10130000064604E0FFF7CAFD801B022809D83868AA
:101310008007F7D50EE0C0F800A0FFF7BFFD064636
:1013200005E082E0FFF7BAFD801B02287DD838680F
:101330008007F7D42078400768D5DFF8CCB10027C4
:101340000BF13C0BDBF80000C0000BD4DBF8001005
:1013500041F08051CBF80010DBF80000012700F0CD
:10136000805000906B4E3068C00510D4306840F457
:1013700080703060FFF792FD009005E0FFF78EFD72
:101380000099401A022850D83068C005F6D55E4E44
:10139000A0686C3601280FD00528306810D020F0E6
:1013A00001003060306820F004003060A068B8B1FF
:1013B000FFF774FD00900FE0306840F00100F4E7A3
:1013C00040F004003060F7E7FFF768FD0099411A2C
:1013D00041F28830814266D830688007F4D50EE04B
:1013E000FFF75CFD009007E0FFF758FD0099411AF8
:1013F00041F28830814256D830688007F4D42FB14A
:10140000DBF8001021F08051CBF80010A069C8B3C0
:101410003D49091D0968C1F3810102294AD002280A
:10142000504607D0C8F8600000E03CE0FFF736FD0A
:1014300004463BE04746C8F86000FFF72FFD06462C
:1014400005E000BFFFF72AFD801B02282BD8286883
:101450008001F7D4D4E907010843A16A2E4A49085C
:1014600002EB0141626A41EA8211084394F82C10B0
:1014700040EA0161C9F8001001203866FFF70EFD4F
:10148000044606E03EE000BFFFF708FD001B02280F
:1014900009D828688001F7D534E000BFFFF7FEFCCB
:1014A000001B022802D90320BDE8F88F28688001BC
:1014B000F4D427E00128F7D0D9F80000E26900F45D
:1014C000800191421CD1226A00F03F01914217D164
:1014D00047F6C071626A0140B1EB821F10D1A26A67
:1014E0004FF0FF3300F4403103EB5202B1EB024FF7
:1014F00006D194F82C1000F07060B0EB016F01D0B1
:101500000120D1E70020CFE7043802400000474225
:10151000800E4742007000400000FFFF10B5401EE3
:10152000B0F1807F01D3012010BD4FF0E024606155
:101530000F21601700F059FD0020A06107202061F5
:10154000002010BD406B704738B5044690F842004B
:10155000202801D0022038BD51B14AB101202063BA
:1015600000206063204600F0E9FC216B012901D0D6
:10157000012038BD21680A684968009121680C3152
:1015800051E8002F42F0100241E80023002BF5D172
:1015900038BD000010B5044600680E49884217D1D6
:1015A0002046FFF7CFFF012803D010B1022803D057
:1015B00007E000F0DDFE04E000F0DAFE064901205D
:1015C00008702046BDE8104040220449FFF7BCBF28
:1015D00010BD00000010014000000020BC000020F1
:1015E00070470000F8B5016804460868CA684B698E
:1015F00010F00F0F4FF0000559D003F0010602F470
:101600009077374365D0C10705D0D10503D5616C0C
:1016100041F001016164410705D5D90703D0616C30
:1016200041F002016164810705D5D90703D0616CDF
:1016300041F004016164010707D502F02001314344
:1016400003D0616C41F008016164616C00293AD0FB
:10165000800604D5900602D5204600F088FB20685D
:101660004069616CC0F38010090700D460B3204664
:1016700000F048FB20684069400621D520681430FE
:1016800050E8001F21F0400140E80012002AF5D187
:10169000E06BA8B172490165E06BFFF783F90028A0
:1016A00011D0E06B016D01B0BDE8F0400847830642
:1016B0000FD593060DD52046BDE8F84000F057BB86
:1016C0002046FFF78DFFF8BD2046FFF789FF6564D0
:1016D000F8BD266B2023012E7ED1C6067CD5D6060A
:1016E0007AD508684868009048694FF002064006BD
:1016F0004DD5E26B106840684FF480770004000C11
:101700003AD0A18D814237D9E085D069B8422DD039
:1017100020680C3050E8001F21F4807140E800126E
:10172000002AF5D12068143050E8001F21F0010193
:1017300040E80012002AF5D12068143050E8001F5C
:1017400021F0400140E80012002AF5D184F842302F
:10175000256320680C3050E8001F21F0100140E89C
:101760000012002AF5D1E06BFFF7D3F86663A08D75
:10177000E18D401A81B206E0A18D8142A8D1D069E5
:10178000B842A5D166632046FFF704FFF8BDA08DDF
:10179000E18D401A81B2E08D0028F7D00029F5D004
:1017A00020680C3050E8002F22F4907240E80027A7
:1017B000002FF5D12068143050E8002F22F00102EC
:1017C00040E80027002FF5D184F8423025632068D7
:1017D0000C3050E8002F00E006E022F0100240E854
:1017E0000023002BF3D1CDE705062BD5150629D50F
:1017F00094F841002128C9D1A068B0F5805F01D1DB
:101800002069B0B1206A411C2162216800784860DB
:10181000E08C401E0004000CE084B7D12068C16851
:1018200021F08001C1602068C16841F04001C160C1
:10183000F8BD206A0088C0F308004860206A801C58
:101840002062E5E74006F3D55006F1D5CA68204688
:1018500022F04002CA6084F8413000F0EDF8F8BD93
:10186000BD1B000870B5040004D094F841000025A9
:1018700010B106E0012070BD84F84050204600F011
:1018800023F8242084F841002068C16821F4005125
:10189000C160204600F0CCFA2068016921F4904133
:1018A00001612068416921F02A0141612068C16815
:1018B00041F40051C1606564202084F8410084F83F
:1018C00042006563002070BD2DE9F04186B00646F8
:1018D00014216846FEF7A4FE3049306888425AD188
:1018E0002F480024016841F010010160006800F0F9
:1018F000100005902A481438016841F00101016088
:101900000068694600F0010005904FF4C060009047
:101910000220CDE901040320039007200490214810
:10192000FFF7C4F9214D20484FF000672860C5E952
:1019300001744FF48068C5E9034880156C61C5E9FE
:1019400006402C6228466C62FFF70EF908B1FEF7DC
:10195000DEFFF563AE63154D134860357830E5E87A
:1019600002074020A5E81101104845F814496030ED
:10197000AC61EC612C626C62FFF7F6F808B1FEF71F
:10198000C6FFB563002211462520AE63FFF7F4FAC7
:101990002520FFF7E3FA06B0BDE8F0810010014012
:1019A00044380240000002404064024044010020EC
:1019B0007047704770B5044690F84100202801D068
:1019C000022070BD01B3FAB12162A284E28400203A
:1019D0006064212384F84130A56B144BEB63A56B45
:1019E000134B2B64A56B134BEB64A36B186520683A
:1019F0001346A56B021D2846FFF720F930B11020D1
:101A00006064202084F84100012070BD21686FF0DF
:101A1000400008602068143050E8001F41F0800149
:101A200040E80012002AF5D1002070BDB91C000862
:101A3000FB1C0008CB1B000810B500680749884252
:101A40000AD1074CA168074800F07AFB0020A0608B
:101A5000BDE8104000F0BEBC10BD00000010014009
:101A600000000020200000207047FEE70D4808B568
:101A7000016841F4800101600068002200F48000E8
:101A8000009011463A20FFF777FA3A20FFF766FAFE
:101A9000002211464620FFF76FFABDE808404620B5
:101AA000FFF75CBA30380240094808B5016841F0D8
:101AB00080010160016801F080010091016841F03E
:101AC00001010160006800F00100009008BD000005
:101AD000303802400C4810B50A4901604FF4E1313A
:101AE0004160002181600C22C160C0E90412816163
:101AF000C161FFF7B7FE002803D0BDE81040FEF734
:101B000006BF10BD00100140FC000020FEE7FEE70C
:101B100070477047FFF7C8B930B593B030216846B9
:101B2000FEF77EFD14210CA8FEF77AFD1D48002566
:101B3000016841F080510160006800F08050119010
:101B40001948016841F4804101600068022400F4F2
:101B50008040119001200090000401908001CDE9A7
:101B6000064008AA0420A82182E813000B906846CA
:101B7000FFF71EFB08B172B6FEE70CA90F2081E843
:101B800031004FF4A0500F904FF480501090052179
:101B90000CA8FFF723FA002801D072B6FEE713B0B5
:101BA00030BD00004038024000700040024801682B
:101BB00041F470010160704788ED00E010B5806B62
:101BC0000021C185FFF70CFD10BD70B5846B206846
:101BD000406994F84110C0F3C0100025212904D1B8
:101BE00018B1E584204600F0B4F82068406994F804
:101BF0004210C0F38010222904D118B1E585204697
:101C000000F080F8606C40F0100060642046FFF740
:101C1000E7FC70BD10B50146806B096809684FF09C
:101C20000002C9052ED4C28501680C3151E8003F7D
:101C300023F4807341E80034002CF5D1016814319D
:101C400051E8003F23F0010341E80034002CF5D1B6
:101C50000168143151E8003F23F0400341E80034AB
:101C6000002CF5D1202180F84210016B012909D107
:101C700001680C3151E8003F23F0100341E80034C3
:101C8000002CF5D14263016B012902D0FFF790FED1
:101C900010BD818DFFF77EFC10BD10B5806B01215A
:101CA0004163016B012902D0FFF783FE10BD818DD6
:101CB0004908FFF76FFC10BD10B50146806B09683D
:101CC0000968C90516D40021C1840168143151E89E
:101CD000002F22F0800241E80023002BF5D101689B
:101CE0000C3151E8002F42F0400241E80023002B64
:101CF000F5D110BDFFF7A0FE10BD10B5806BFFF74A
:101D0000B3FE10BD01680C3151E8002F22F490722F
:101D100041E80023002BF5D10168143151E8002F70
:101D200022F0010241E80023002BF5D1016B0129CB
:101D300009D101680C3151E8002F22F0100241E86E
:101D40000023002BF5D1202180F8421000210163EF
:101D5000704701680C3151E8002F22F0C00241E8C1
:101D60000023002BF5D1202180F84110704708B5E1
:101D700090F84210222901D0022008BD82684FF459
:101D800080539A4201D1016921B1816A9A421BD0E4
:101D90004AB10AE00268816A5268C2F308020A8006
:101DA000816A891C08E0026972B10268526802F017
:101DB0007F020A70816A491C8162C18D491E090433
:101DC000090CC18503D01BE002685268F1E7016885
:101DD000CA6822F02002CA600168CA6822F48072D0
:101DE000CA6001684A6922F001024A61202180F834
:101DF000421000214163026B012A03D0FFF7D8FD96
:101E0000002008BD016301680C3151E8002F22F069
:101E1000100241E80023002BF5D101680A68D206C0
:101E200002D50A6849680091818DFFF7B3FBE7E7A7
:101E300070B5044600680169E26821F4405111431D
:101E400001612169A068E26908436169114308439F
:101E50002168CA6849F20C639A430243CA60206849
:101E60004169A26921F440711143416131492068FF
:101E7000884202D03049884202D1FFF759F901E087
:101E8000FFF746F9E2690023192164253226B2F5ED
:101E9000004F626828D0A0FB0101930F9200FEF76B
:101EA000E7F90146B0FBF5F06FF01802504301EB83
:101EB000800006EB0010B0FBF5F000F0F002B1FB83
:101EC000F5F002EB0012B1FBF5F06FF01803584388
:101ED00001EB800006EB0010B0FBF5F000F00F0006
:101EE00021681044886070BDA0FB010192185B411D
:101EF000FEF7BEF90146B0FBF5F00201B1FBF5F0CB
:101F00006FF01803584301EB800006EBC000B0FBF4
:101F1000F5F000F0F80002EB4002B1FBF5F0584399
:101F200001EB800006EBC000B0FBF5F000F007000D
:101F3000D6E70000001001400014014038B581626E
:101F400004468285002013466064222284F84220E1
:101F5000E56B1F4AEA63E56B1E4A2A64E56B1E4A7D
:101F6000EA64E26B10650A462168E06B091DFEF722
:101F700065FE30B110206064202084F8420001200A
:101F800038BD2068016840680090206948B1206829
:101F90000C3050E8001F41F4807140E80012002A24
:101FA000F5D12068143050E8001F41F0010140E8ED
:101FB0000012002AF5D12068143050E8001F41F0CB
:101FC000400140E80012002AF5D1002038BD000091
:101FD000151C00089B1C0008CB1B00080148FFF7DC
:101FE00001BB0000FC000020FEE70907090E0028E5
:101FF00004DB00F1E02080F80014704700F00F00CF
:1020000000F1E02080F8141D704730380A2801D212
:1020100001207047002070477047000003490A689C
:102020005206FCD5C2B24A60704700000010014061
:1020300088B101680D4A91420DD18169D243914224
:1020400009D1416839B1816829B10269C1688A4200
:1020500003D1806808E000207047914201D9881AB6
:1020600002E08068511A401A401E7047EFBEADDE94
:1020700078B101680D4A91420BD18169D2439142F6
:1020800007D1416829B1816819B10269C1688A42E2
:1020900002D14FF00000704702D9A2EB0100704757
:1020A0008068A1EB0201A0EB01007047EFBEADDE3E
:1020B00078B10168084A91420BD18169D2439142BB
:1020C00007D1416829B1816819B14168C0680844E5
:1020D0007047002070470000EFBEADDEB0B1016870
:1020E0000B4A914212D18169D24391420ED141688B
:1020F00061B1816851B10269C1688A4201D9501A3F
:102100007047914202D98068401A7047002070479A
:10211000EFBEADDE70B515460E4604000CD05EB1C4
:1021200055B11C21FEF77CFAA5606660034820606B
:10213000C043A061012070BD002070BDEFBEADDEC8
:1021400070B50C46030026D018681449884222D185
:102150009869C94388421ED15868E0B19868D0B1E7
:10216000CCB11846FFF784FF844200D30446D868F8
:102170002044D860D8689968884203D3D8689968A1
:10218000401AD860586920B15D692246002118467E
:10219000A847204670BD002070BD0000EFBEADDE38
:1021A0002DE9F041134604000E461ED02068214A56
:1021B00090421AD1A069D243904216D16068A0B172
:1021C000A06890B18EB183B12046FFF731FF9842ED
:1021D00000D31846070008D0A0682169401AB84209
:1021E00006D2A0682169451A03E00020BDE8F0810D
:1021F0003D46606821692A4608443146FEF7CBF91E
:102200002069284420617F1B05D0606871193A4617
:10221000FEF7C1F927612069A168884201D3002037
:102220002061606920B16369EA190121204698475D
:10223000E819DBE7EFBEADDEFEF73EFEFFF76CFC14
:102240001E498022A1F11C00FFF764FFFFF72CFC60
:10225000FFF70CFCFFF73EFC18494022803118487C
:10226000FFF772F917A000F0A5F824A000F0A2F87B
:102270002A4D28780028FCD00020287028A0FEF7DE
:102280006FF80E4E00242CA0315DFEF769F8641C37
:10229000802CF8D318A0FEF763F829A0FEF760F8A9
:1022A000064E0024803624A0315DFEF759F8641CE8
:1022B000402CF8D310A0FEF753F8DAE73C000020DA
:1022C000FC000020555341525420444D4120657874
:1022D000616D706C653A20444D41204854202620A1
:1022E0005443202B2055534152542049444C4520FF
:1022F0004C494E45204952510D0A000053746172F9
:10230000742073656E64696E672064617461207403
:102310006F2053544D33320D0A000000000000209E
:1023200054582052696E6720427566666572204473
:102330006174613A200D0A002530325820000000F7
:10234000525820444D4120427566666572204461B2
:1023500074613A200D0A00000A4610B50146034890
:10236000FFF71EFFBDE8104000F034B82000002049
:1023700070B50D48006840680C4DC0F140040C4831
:10238000696808448C420DD002D9A4EB010106E033
:10239000C1F14001FFF7E0FF1CB121460448FFF7FF
:1023A000DBFF6C6070BD00004401002000000020D5
:1023B000BC00002010B50446FEF7CEF802462146C8
:1023C0000348FFF7EDFEBDE8104000F003B8000041
:1023D0002000002070B50026EFF3108472B60C4D7B
:1023E000A86888B90B48FFF779FEA86060B10A4871
:1023F000FEF78FFA0748FFF75BFE0146A86882B236
:102400000648FFF7D7FA012684F31088304670BDDE
:102410000000002020000020A4010020FC0000207B
:102420004FF04070E1EE100A7047000610160006EB
:10243000101600000000000000000102030406075F
:102440000809000000000102030430313233343542
:1024500036373839414243444546403058003031E0
:1024600032333435363738396162636465664030FB
:1024700078000400000800000000000000020001D5
:1024800000001000A424000800000020200000002C
:10249000C4010008C42400082000002048080000EF
:1024A000E001000800000000000000000000000043
:1024B000000000000100000010000000000000000B
:0424C0000024F40000
:040000050800018965
:00000001FF
